{
  "contractName": "StarNotary",
  "abi": [
    {
      "inputs": [],
      "stateMutability": "nonpayable",
      "type": "constructor"
    },
    {
      "anonymous": false,
      "inputs": [
        {
          "indexed": true,
          "internalType": "address",
          "name": "owner",
          "type": "address"
        },
        {
          "indexed": true,
          "internalType": "address",
          "name": "approved",
          "type": "address"
        },
        {
          "indexed": true,
          "internalType": "uint256",
          "name": "tokenId",
          "type": "uint256"
        }
      ],
      "name": "Approval",
      "type": "event"
    },
    {
      "anonymous": false,
      "inputs": [
        {
          "indexed": true,
          "internalType": "address",
          "name": "owner",
          "type": "address"
        },
        {
          "indexed": true,
          "internalType": "address",
          "name": "operator",
          "type": "address"
        },
        {
          "indexed": false,
          "internalType": "bool",
          "name": "approved",
          "type": "bool"
        }
      ],
      "name": "ApprovalForAll",
      "type": "event"
    },
    {
      "anonymous": false,
      "inputs": [
        {
          "indexed": true,
          "internalType": "address",
          "name": "from",
          "type": "address"
        },
        {
          "indexed": true,
          "internalType": "address",
          "name": "to",
          "type": "address"
        },
        {
          "indexed": true,
          "internalType": "uint256",
          "name": "tokenId",
          "type": "uint256"
        }
      ],
      "name": "Transfer",
      "type": "event"
    },
    {
      "inputs": [
        {
          "internalType": "address",
          "name": "to",
          "type": "address"
        },
        {
          "internalType": "uint256",
          "name": "tokenId",
          "type": "uint256"
        }
      ],
      "name": "approve",
      "outputs": [],
      "stateMutability": "nonpayable",
      "type": "function"
    },
    {
      "inputs": [
        {
          "internalType": "address",
          "name": "owner",
          "type": "address"
        }
      ],
      "name": "balanceOf",
      "outputs": [
        {
          "internalType": "uint256",
          "name": "",
          "type": "uint256"
        }
      ],
      "stateMutability": "view",
      "type": "function",
      "constant": true
    },
    {
      "inputs": [
        {
          "internalType": "uint256",
          "name": "tokenId",
          "type": "uint256"
        }
      ],
      "name": "getApproved",
      "outputs": [
        {
          "internalType": "address",
          "name": "",
          "type": "address"
        }
      ],
      "stateMutability": "view",
      "type": "function",
      "constant": true
    },
    {
      "inputs": [
        {
          "internalType": "address",
          "name": "owner",
          "type": "address"
        },
        {
          "internalType": "address",
          "name": "operator",
          "type": "address"
        }
      ],
      "name": "isApprovedForAll",
      "outputs": [
        {
          "internalType": "bool",
          "name": "",
          "type": "bool"
        }
      ],
      "stateMutability": "view",
      "type": "function",
      "constant": true
    },
    {
      "inputs": [],
      "name": "name",
      "outputs": [
        {
          "internalType": "string",
          "name": "",
          "type": "string"
        }
      ],
      "stateMutability": "view",
      "type": "function",
      "constant": true
    },
    {
      "inputs": [
        {
          "internalType": "uint256",
          "name": "tokenId",
          "type": "uint256"
        }
      ],
      "name": "ownerOf",
      "outputs": [
        {
          "internalType": "address",
          "name": "",
          "type": "address"
        }
      ],
      "stateMutability": "view",
      "type": "function",
      "constant": true
    },
    {
      "inputs": [
        {
          "internalType": "address",
          "name": "from",
          "type": "address"
        },
        {
          "internalType": "address",
          "name": "to",
          "type": "address"
        },
        {
          "internalType": "uint256",
          "name": "tokenId",
          "type": "uint256"
        }
      ],
      "name": "safeTransferFrom",
      "outputs": [],
      "stateMutability": "nonpayable",
      "type": "function"
    },
    {
      "inputs": [
        {
          "internalType": "address",
          "name": "from",
          "type": "address"
        },
        {
          "internalType": "address",
          "name": "to",
          "type": "address"
        },
        {
          "internalType": "uint256",
          "name": "tokenId",
          "type": "uint256"
        },
        {
          "internalType": "bytes",
          "name": "_data",
          "type": "bytes"
        }
      ],
      "name": "safeTransferFrom",
      "outputs": [],
      "stateMutability": "nonpayable",
      "type": "function"
    },
    {
      "inputs": [
        {
          "internalType": "address",
          "name": "operator",
          "type": "address"
        },
        {
          "internalType": "bool",
          "name": "approved",
          "type": "bool"
        }
      ],
      "name": "setApprovalForAll",
      "outputs": [],
      "stateMutability": "nonpayable",
      "type": "function"
    },
    {
      "inputs": [
        {
          "internalType": "uint256",
          "name": "",
          "type": "uint256"
        }
      ],
      "name": "starsForSale",
      "outputs": [
        {
          "internalType": "uint256",
          "name": "",
          "type": "uint256"
        }
      ],
      "stateMutability": "view",
      "type": "function",
      "constant": true
    },
    {
      "inputs": [
        {
          "internalType": "bytes4",
          "name": "interfaceId",
          "type": "bytes4"
        }
      ],
      "name": "supportsInterface",
      "outputs": [
        {
          "internalType": "bool",
          "name": "",
          "type": "bool"
        }
      ],
      "stateMutability": "view",
      "type": "function",
      "constant": true
    },
    {
      "inputs": [],
      "name": "symbol",
      "outputs": [
        {
          "internalType": "string",
          "name": "",
          "type": "string"
        }
      ],
      "stateMutability": "view",
      "type": "function",
      "constant": true
    },
    {
      "inputs": [
        {
          "internalType": "uint256",
          "name": "",
          "type": "uint256"
        }
      ],
      "name": "tokenIdToStarInfo",
      "outputs": [
        {
          "internalType": "string",
          "name": "name",
          "type": "string"
        }
      ],
      "stateMutability": "view",
      "type": "function",
      "constant": true
    },
    {
      "inputs": [
        {
          "internalType": "uint256",
          "name": "tokenId",
          "type": "uint256"
        }
      ],
      "name": "tokenURI",
      "outputs": [
        {
          "internalType": "string",
          "name": "",
          "type": "string"
        }
      ],
      "stateMutability": "view",
      "type": "function",
      "constant": true
    },
    {
      "inputs": [
        {
          "internalType": "address",
          "name": "from",
          "type": "address"
        },
        {
          "internalType": "address",
          "name": "to",
          "type": "address"
        },
        {
          "internalType": "uint256",
          "name": "tokenId",
          "type": "uint256"
        }
      ],
      "name": "transferFrom",
      "outputs": [],
      "stateMutability": "nonpayable",
      "type": "function"
    },
    {
      "inputs": [
        {
          "internalType": "string",
          "name": "_name",
          "type": "string"
        },
        {
          "internalType": "uint256",
          "name": "_tokenId",
          "type": "uint256"
        }
      ],
      "name": "createStar",
      "outputs": [],
      "stateMutability": "nonpayable",
      "type": "function"
    },
    {
      "inputs": [
        {
          "internalType": "uint256",
          "name": "_tokenId",
          "type": "uint256"
        },
        {
          "internalType": "uint256",
          "name": "_price",
          "type": "uint256"
        }
      ],
      "name": "putStarUpForSale",
      "outputs": [],
      "stateMutability": "nonpayable",
      "type": "function"
    },
    {
      "inputs": [
        {
          "internalType": "address",
          "name": "_spender",
          "type": "address"
        },
        {
          "internalType": "uint256",
          "name": "_tokenId",
          "type": "uint256"
        }
      ],
      "name": "approveTransaction",
      "outputs": [
        {
          "internalType": "bool",
          "name": "success",
          "type": "bool"
        }
      ],
      "stateMutability": "nonpayable",
      "type": "function"
    },
    {
      "inputs": [
        {
          "internalType": "uint256",
          "name": "_tokenId",
          "type": "uint256"
        }
      ],
      "name": "buyStar",
      "outputs": [],
      "stateMutability": "payable",
      "type": "function",
      "payable": true
    }
  ],
  "bytecode": "0x60806040523480156200001157600080fd5b506040518060400160405280600a81526020017f537461724e6f74617279000000000000000000000000000000000000000000008152506040518060400160405280600481526020017f5354415200000000000000000000000000000000000000000000000000000000815250816000908051906020019062000096929190620000b8565b508060019080519060200190620000af929190620000b8565b505050620001cd565b828054620000c69062000168565b90600052602060002090601f016020900481019282620000ea576000855562000136565b82601f106200010557805160ff191683800117855562000136565b8280016001018555821562000136579182015b828111156200013557825182559160200191906001019062000118565b5b50905062000145919062000149565b5090565b5b80821115620001645760008160009055506001016200014a565b5090565b600060028204905060018216806200018157607f821691505b602082108114156200019857620001976200019e565b5b50919050565b7f4e487b7100000000000000000000000000000000000000000000000000000000600052602260045260246000fd5b612f6b80620001dd6000396000f3fe6080604052600436106101145760003560e01c806342842e0e116100a05780639697c0a1116100645780639697c0a1146103da578063a22cb46514610403578063b88d4fde1461042c578063c87b56dd14610455578063e985e9c51461049257610114565b806342842e0e146102cf5780636352211e146102f857806365decc0b1461033557806370a082311461037257806395d89b41146103af57610114565b8063095ea7b3116100e7578063095ea7b3146101fb5780631967fd981461022457806323b872dd146102615780632f1c34ef1461028a578063316a4361146102a657610114565b806301ffc9a7146101195780630564b1301461015657806306fdde0314610193578063081812fc146101be575b600080fd5b34801561012557600080fd5b50610140600480360381019061013b9190611f42565b6104cf565b60405161014d91906123fb565b60405180910390f35b34801561016257600080fd5b5061017d60048036038101906101789190611fe8565b6105b1565b60405161018a9190612658565b60405180910390f35b34801561019f57600080fd5b506101a86105c9565b6040516101b59190612416565b60405180910390f35b3480156101ca57600080fd5b506101e560048036038101906101e09190611fe8565b61065b565b6040516101f29190612394565b60405180910390f35b34801561020757600080fd5b50610222600480360381019061021d9190611f06565b6106e0565b005b34801561023057600080fd5b5061024b60048036038101906102469190611fe8565b6107f8565b6040516102589190612416565b60405180910390f35b34801561026d57600080fd5b5061028860048036038101906102839190611e00565b61089e565b005b6102a4600480360381019061029f9190611fe8565b6108fe565b005b3480156102b257600080fd5b506102cd60048036038101906102c89190612011565b610a7b565b005b3480156102db57600080fd5b506102f660048036038101906102f19190611e00565b610b0d565b005b34801561030457600080fd5b5061031f600480360381019061031a9190611fe8565b610b2d565b60405161032c9190612394565b60405180910390f35b34801561034157600080fd5b5061035c60048036038101906103579190611f06565b610bdf565b60405161036991906123fb565b60405180910390f35b34801561037e57600080fd5b5061039960048036038101906103949190611d9b565b610c89565b6040516103a69190612658565b60405180910390f35b3480156103bb57600080fd5b506103c4610d41565b6040516103d19190612416565b60405180910390f35b3480156103e657600080fd5b5061040160048036038101906103fc9190611f94565b610dd3565b005b34801561040f57600080fd5b5061042a60048036038101906104259190611eca565b610e29565b005b34801561043857600080fd5b50610453600480360381019061044e9190611e4f565b610faa565b005b34801561046157600080fd5b5061047c60048036038101906104779190611fe8565b61100c565b6040516104899190612416565b60405180910390f35b34801561049e57600080fd5b506104b960048036038101906104b49190611dc4565b6110b3565b6040516104c691906123fb565b60405180910390f35b60007f80ac58cd000000000000000000000000000000000000000000000000000000007bffffffffffffffffffffffffffffffffffffffffffffffffffffffff1916827bffffffffffffffffffffffffffffffffffffffffffffffffffffffff1916148061059a57507f5b5e139f000000000000000000000000000000000000000000000000000000007bffffffffffffffffffffffffffffffffffffffffffffffffffffffff1916827bffffffffffffffffffffffffffffffffffffffffffffffffffffffff1916145b806105aa57506105a982611147565b5b9050919050565b60076020528060005260406000206000915090505481565b6060600080546105d8906128ae565b80601f0160208091040260200160405190810160405280929190818152602001828054610604906128ae565b80156106515780601f1061062657610100808354040283529160200191610651565b820191906000526020600020905b81548152906001019060200180831161063457829003601f168201915b5050505050905090565b6000610666826111b1565b6106a5576040517f08c379a000000000000000000000000000000000000000000000000000000000815260040161069c90612578565b60405180910390fd5b6004600083815260200190815260200160002060009054906101000a900473ffffffffffffffffffffffffffffffffffffffff169050919050565b60006106eb82610b2d565b90508073ffffffffffffffffffffffffffffffffffffffff168373ffffffffffffffffffffffffffffffffffffffff16141561075c576040517f08c379a0000000000000000000000000000000000000000000000000000000008152600401610753906125f8565b60405180910390fd5b8073ffffffffffffffffffffffffffffffffffffffff1661077b61121d565b73ffffffffffffffffffffffffffffffffffffffff1614806107aa57506107a9816107a461121d565b6110b3565b5b6107e9576040517f08c379a00000000000000000000000000000000000000000000000000000000081526004016107e0906124f8565b60405180910390fd5b6107f38383611225565b505050565b600660205280600052604060002060009150905080600001805461081b906128ae565b80601f0160208091040260200160405190810160405280929190818152602001828054610847906128ae565b80156108945780601f1061086957610100808354040283529160200191610894565b820191906000526020600020905b81548152906001019060200180831161087757829003601f168201915b5050505050905081565b6108af6108a961121d565b826112de565b6108ee576040517f08c379a00000000000000000000000000000000000000000000000000000000081526004016108e590612638565b60405180910390fd5b6108f98383836113bc565b505050565b6000600760008381526020019081526020016000205411610954576040517f08c379a000000000000000000000000000000000000000000000000000000000815260040161094b90612618565b60405180910390fd5b600060076000838152602001908152602001600020549050600061097783610b2d565b90508134116109bb576040517f08c379a00000000000000000000000000000000000000000000000000000000081526004016109b2906125d8565b60405180910390fd5b6109c681338561089e565b60006109d182611618565b90508073ffffffffffffffffffffffffffffffffffffffff166108fc849081150290604051600060405180830381858888f19350505050158015610a19573d6000803e3d6000fd5b5082341115610a75573373ffffffffffffffffffffffffffffffffffffffff166108fc8434610a4891906127c4565b9081150290604051600060405180830381858888f19350505050158015610a73573d6000803e3d6000fd5b505b50505050565b3373ffffffffffffffffffffffffffffffffffffffff16610a9b83610b2d565b73ffffffffffffffffffffffffffffffffffffffff1614610af1576040517f08c379a0000000000000000000000000000000000000000000000000000000008152600401610ae890612438565b60405180910390fd5b8060076000848152602001908152602001600020819055505050565b610b2883838360405180602001604052806000815250610faa565b505050565b6000806002600084815260200190815260200160002060009054906101000a900473ffffffffffffffffffffffffffffffffffffffff169050600073ffffffffffffffffffffffffffffffffffffffff168173ffffffffffffffffffffffffffffffffffffffff161415610bd6576040517f08c379a0000000000000000000000000000000000000000000000000000000008152600401610bcd90612538565b60405180910390fd5b80915050919050565b60008073ffffffffffffffffffffffffffffffffffffffff168373ffffffffffffffffffffffffffffffffffffffff161415610c1a57600080fd5b610c2483836106e0565b818373ffffffffffffffffffffffffffffffffffffffff163373ffffffffffffffffffffffffffffffffffffffff167f8c5be1e5ebec7d5bd14f71427d1e84f3dd0314c0f7b2291e5b200ac8c7c3b92560405160405180910390a46001905092915050565b60008073ffffffffffffffffffffffffffffffffffffffff168273ffffffffffffffffffffffffffffffffffffffff161415610cfa576040517f08c379a0000000000000000000000000000000000000000000000000000000008152600401610cf190612518565b60405180910390fd5b600360008373ffffffffffffffffffffffffffffffffffffffff1673ffffffffffffffffffffffffffffffffffffffff168152602001908152602001600020549050919050565b606060018054610d50906128ae565b80601f0160208091040260200160405190810160405280929190818152602001828054610d7c906128ae565b8015610dc95780601f10610d9e57610100808354040283529160200191610dc9565b820191906000526020600020905b815481529060010190602001808311610dac57829003601f168201915b5050505050905090565b6000604051806020016040528084815250905080600660008481526020019081526020016000206000820151816000019080519060200190610e16929190611bbf565b50905050610e243383611622565b505050565b610e3161121d565b73ffffffffffffffffffffffffffffffffffffffff168273ffffffffffffffffffffffffffffffffffffffff161415610e9f576040517f08c379a0000000000000000000000000000000000000000000000000000000008152600401610e96906124b8565b60405180910390fd5b8060056000610eac61121d565b73ffffffffffffffffffffffffffffffffffffffff1673ffffffffffffffffffffffffffffffffffffffff16815260200190815260200160002060008473ffffffffffffffffffffffffffffffffffffffff1673ffffffffffffffffffffffffffffffffffffffff16815260200190815260200160002060006101000a81548160ff0219169083151502179055508173ffffffffffffffffffffffffffffffffffffffff16610f5961121d565b73ffffffffffffffffffffffffffffffffffffffff167f17307eab39ab6107e8899845ad3d59bd9653f200f220920489ca2b5937696c3183604051610f9e91906123fb565b60405180910390a35050565b610fbb610fb561121d565b836112de565b610ffa576040517f08c379a0000000000000000000000000000000000000000000000000000000008152600401610ff190612638565b60405180910390fd5b611006848484846117f0565b50505050565b6060611017826111b1565b611056576040517f08c379a000000000000000000000000000000000000000000000000000000000815260040161104d906125b8565b60405180910390fd5b600061106061184c565b9050600081511161108057604051806020016040528060008152506110ab565b8061108a84611863565b60405160200161109b929190612370565b6040516020818303038152906040525b915050919050565b6000600560008473ffffffffffffffffffffffffffffffffffffffff1673ffffffffffffffffffffffffffffffffffffffff16815260200190815260200160002060008373ffffffffffffffffffffffffffffffffffffffff1673ffffffffffffffffffffffffffffffffffffffff16815260200190815260200160002060009054906101000a900460ff16905092915050565b60007f01ffc9a7000000000000000000000000000000000000000000000000000000007bffffffffffffffffffffffffffffffffffffffffffffffffffffffff1916827bffffffffffffffffffffffffffffffffffffffffffffffffffffffff1916149050919050565b60008073ffffffffffffffffffffffffffffffffffffffff166002600084815260200190815260200160002060009054906101000a900473ffffffffffffffffffffffffffffffffffffffff1673ffffffffffffffffffffffffffffffffffffffff1614159050919050565b600033905090565b816004600083815260200190815260200160002060006101000a81548173ffffffffffffffffffffffffffffffffffffffff021916908373ffffffffffffffffffffffffffffffffffffffff160217905550808273ffffffffffffffffffffffffffffffffffffffff1661129883610b2d565b73ffffffffffffffffffffffffffffffffffffffff167f8c5be1e5ebec7d5bd14f71427d1e84f3dd0314c0f7b2291e5b200ac8c7c3b92560405160405180910390a45050565b60006112e9826111b1565b611328576040517f08c379a000000000000000000000000000000000000000000000000000000000815260040161131f906124d8565b60405180910390fd5b600061133383610b2d565b90508073ffffffffffffffffffffffffffffffffffffffff168473ffffffffffffffffffffffffffffffffffffffff1614806113a257508373ffffffffffffffffffffffffffffffffffffffff1661138a8461065b565b73ffffffffffffffffffffffffffffffffffffffff16145b806113b357506113b281856110b3565b5b91505092915050565b8273ffffffffffffffffffffffffffffffffffffffff166113dc82610b2d565b73ffffffffffffffffffffffffffffffffffffffff1614611432576040517f08c379a000000000000000000000000000000000000000000000000000000000815260040161142990612598565b60405180910390fd5b600073ffffffffffffffffffffffffffffffffffffffff168273ffffffffffffffffffffffffffffffffffffffff1614156114a2576040517f08c379a000000000000000000000000000000000000000000000000000000000815260040161149990612498565b60405180910390fd5b6114ad838383611a10565b6114b8600082611225565b6001600360008573ffffffffffffffffffffffffffffffffffffffff1673ffffffffffffffffffffffffffffffffffffffff168152602001908152602001600020600082825461150891906127c4565b925050819055506001600360008473ffffffffffffffffffffffffffffffffffffffff1673ffffffffffffffffffffffffffffffffffffffff168152602001908152602001600020600082825461155f919061273d565b92505081905550816002600083815260200190815260200160002060006101000a81548173ffffffffffffffffffffffffffffffffffffffff021916908373ffffffffffffffffffffffffffffffffffffffff160217905550808273ffffffffffffffffffffffffffffffffffffffff168473ffffffffffffffffffffffffffffffffffffffff167fddf252ad1be2c89b69c2b068fc378daa952ba7f163c4a11628f55a4df523b3ef60405160405180910390a4505050565b6000819050919050565b600073ffffffffffffffffffffffffffffffffffffffff168273ffffffffffffffffffffffffffffffffffffffff161415611692576040517f08c379a000000000000000000000000000000000000000000000000000000000815260040161168990612558565b60405180910390fd5b61169b816111b1565b156116db576040517f08c379a00000000000000000000000000000000000000000000000000000000081526004016116d290612478565b60405180910390fd5b6116e760008383611a10565b6001600360008473ffffffffffffffffffffffffffffffffffffffff1673ffffffffffffffffffffffffffffffffffffffff1681526020019081526020016000206000828254611737919061273d565b92505081905550816002600083815260200190815260200160002060006101000a81548173ffffffffffffffffffffffffffffffffffffffff021916908373ffffffffffffffffffffffffffffffffffffffff160217905550808273ffffffffffffffffffffffffffffffffffffffff16600073ffffffffffffffffffffffffffffffffffffffff167fddf252ad1be2c89b69c2b068fc378daa952ba7f163c4a11628f55a4df523b3ef60405160405180910390a45050565b6117fb8484846113bc565b61180784848484611a15565b611846576040517f08c379a000000000000000000000000000000000000000000000000000000000815260040161183d90612458565b60405180910390fd5b50505050565b606060405180602001604052806000815250905090565b606060008214156118ab576040518060400160405280600181526020017f30000000000000000000000000000000000000000000000000000000000000008152509050611a0b565b600082905060005b600082146118dd5780806118c690612911565b915050600a826118d69190612793565b91506118b3565b60008167ffffffffffffffff81111561191f577f4e487b7100000000000000000000000000000000000000000000000000000000600052604160045260246000fd5b6040519080825280601f01601f1916602001820160405280156119515781602001600182028036833780820191505090505b5090505b60008514611a045760018261196a91906127c4565b9150600a85611979919061295a565b6030611985919061273d565b60f81b8183815181106119c1577f4e487b7100000000000000000000000000000000000000000000000000000000600052603260045260246000fd5b60200101907effffffffffffffffffffffffffffffffffffffffffffffffffffffffffffff1916908160001a905350600a856119fd9190612793565b9450611955565b8093505050505b919050565b505050565b6000611a368473ffffffffffffffffffffffffffffffffffffffff16611bac565b15611b9f578373ffffffffffffffffffffffffffffffffffffffff1663150b7a02611a5f61121d565b8786866040518563ffffffff1660e01b8152600401611a8194939291906123af565b602060405180830381600087803b158015611a9b57600080fd5b505af1925050508015611acc57506040513d601f19601f82011682018060405250810190611ac99190611f6b565b60015b611b4f573d8060008114611afc576040519150601f19603f3d011682016040523d82523d6000602084013e611b01565b606091505b50600081511415611b47576040517f08c379a0000000000000000000000000000000000000000000000000000000008152600401611b3e90612458565b60405180910390fd5b805181602001fd5b63150b7a0260e01b7bffffffffffffffffffffffffffffffffffffffffffffffffffffffff1916817bffffffffffffffffffffffffffffffffffffffffffffffffffffffff191614915050611ba4565b600190505b949350505050565b600080823b905060008111915050919050565b828054611bcb906128ae565b90600052602060002090601f016020900481019282611bed5760008555611c34565b82601f10611c0657805160ff1916838001178555611c34565b82800160010185558215611c34579182015b82811115611c33578251825591602001919060010190611c18565b5b509050611c419190611c45565b5090565b5b80821115611c5e576000816000905550600101611c46565b5090565b6000611c75611c7084612698565b612673565b905082815260208101848484011115611c8d57600080fd5b611c9884828561286c565b509392505050565b6000611cb3611cae846126c9565b612673565b905082815260208101848484011115611ccb57600080fd5b611cd684828561286c565b509392505050565b600081359050611ced81612ed9565b92915050565b600081359050611d0281612ef0565b92915050565b600081359050611d1781612f07565b92915050565b600081519050611d2c81612f07565b92915050565b600082601f830112611d4357600080fd5b8135611d53848260208601611c62565b91505092915050565b600082601f830112611d6d57600080fd5b8135611d7d848260208601611ca0565b91505092915050565b600081359050611d9581612f1e565b92915050565b600060208284031215611dad57600080fd5b6000611dbb84828501611cde565b91505092915050565b60008060408385031215611dd757600080fd5b6000611de585828601611cde565b9250506020611df685828601611cde565b9150509250929050565b600080600060608486031215611e1557600080fd5b6000611e2386828701611cde565b9350506020611e3486828701611cde565b9250506040611e4586828701611d86565b9150509250925092565b60008060008060808587031215611e6557600080fd5b6000611e7387828801611cde565b9450506020611e8487828801611cde565b9350506040611e9587828801611d86565b925050606085013567ffffffffffffffff811115611eb257600080fd5b611ebe87828801611d32565b91505092959194509250565b60008060408385031215611edd57600080fd5b6000611eeb85828601611cde565b9250506020611efc85828601611cf3565b9150509250929050565b60008060408385031215611f1957600080fd5b6000611f2785828601611cde565b9250506020611f3885828601611d86565b9150509250929050565b600060208284031215611f5457600080fd5b6000611f6284828501611d08565b91505092915050565b600060208284031215611f7d57600080fd5b6000611f8b84828501611d1d565b91505092915050565b60008060408385031215611fa757600080fd5b600083013567ffffffffffffffff811115611fc157600080fd5b611fcd85828601611d5c565b9250506020611fde85828601611d86565b9150509250929050565b600060208284031215611ffa57600080fd5b600061200884828501611d86565b91505092915050565b6000806040838503121561202457600080fd5b600061203285828601611d86565b925050602061204385828601611d86565b9150509250929050565b612056816127f8565b82525050565b6120658161280a565b82525050565b6000612076826126fa565b6120808185612710565b935061209081856020860161287b565b61209981612a47565b840191505092915050565b60006120af82612705565b6120b98185612721565b93506120c981856020860161287b565b6120d281612a47565b840191505092915050565b60006120e882612705565b6120f28185612732565b935061210281856020860161287b565b80840191505092915050565b600061211b602783612721565b915061212682612a58565b604082019050919050565b600061213e603283612721565b915061214982612aa7565b604082019050919050565b6000612161601c83612721565b915061216c82612af6565b602082019050919050565b6000612184602483612721565b915061218f82612b1f565b604082019050919050565b60006121a7601983612721565b91506121b282612b6e565b602082019050919050565b60006121ca602c83612721565b91506121d582612b97565b604082019050919050565b60006121ed603883612721565b91506121f882612be6565b604082019050919050565b6000612210602a83612721565b915061221b82612c35565b604082019050919050565b6000612233602983612721565b915061223e82612c84565b604082019050919050565b6000612256602083612721565b915061226182612cd3565b602082019050919050565b6000612279602c83612721565b915061228482612cfc565b604082019050919050565b600061229c602983612721565b91506122a782612d4b565b604082019050919050565b60006122bf602f83612721565b91506122ca82612d9a565b604082019050919050565b60006122e2601d83612721565b91506122ed82612de9565b602082019050919050565b6000612305602183612721565b915061231082612e12565b604082019050919050565b6000612328601e83612721565b915061233382612e61565b602082019050919050565b600061234b603183612721565b915061235682612e8a565b604082019050919050565b61236a81612862565b82525050565b600061237c82856120dd565b915061238882846120dd565b91508190509392505050565b60006020820190506123a9600083018461204d565b92915050565b60006080820190506123c4600083018761204d565b6123d1602083018661204d565b6123de6040830185612361565b81810360608301526123f0818461206b565b905095945050505050565b6000602082019050612410600083018461205c565b92915050565b6000602082019050818103600083015261243081846120a4565b905092915050565b600060208201905081810360008301526124518161210e565b9050919050565b6000602082019050818103600083015261247181612131565b9050919050565b6000602082019050818103600083015261249181612154565b9050919050565b600060208201905081810360008301526124b181612177565b9050919050565b600060208201905081810360008301526124d18161219a565b9050919050565b600060208201905081810360008301526124f1816121bd565b9050919050565b60006020820190508181036000830152612511816121e0565b9050919050565b6000602082019050818103600083015261253181612203565b9050919050565b6000602082019050818103600083015261255181612226565b9050919050565b6000602082019050818103600083015261257181612249565b9050919050565b600060208201905081810360008301526125918161226c565b9050919050565b600060208201905081810360008301526125b18161228f565b9050919050565b600060208201905081810360008301526125d1816122b2565b9050919050565b600060208201905081810360008301526125f1816122d5565b9050919050565b60006020820190508181036000830152612611816122f8565b9050919050565b600060208201905081810360008301526126318161231b565b9050919050565b600060208201905081810360008301526126518161233e565b9050919050565b600060208201905061266d6000830184612361565b92915050565b600061267d61268e565b905061268982826128e0565b919050565b6000604051905090565b600067ffffffffffffffff8211156126b3576126b2612a18565b5b6126bc82612a47565b9050602081019050919050565b600067ffffffffffffffff8211156126e4576126e3612a18565b5b6126ed82612a47565b9050602081019050919050565b600081519050919050565b600081519050919050565b600082825260208201905092915050565b600082825260208201905092915050565b600081905092915050565b600061274882612862565b915061275383612862565b9250827fffffffffffffffffffffffffffffffffffffffffffffffffffffffffffffffff038211156127885761278761298b565b5b828201905092915050565b600061279e82612862565b91506127a983612862565b9250826127b9576127b86129ba565b5b828204905092915050565b60006127cf82612862565b91506127da83612862565b9250828210156127ed576127ec61298b565b5b828203905092915050565b600061280382612842565b9050919050565b60008115159050919050565b60007fffffffff0000000000000000000000000000000000000000000000000000000082169050919050565b600073ffffffffffffffffffffffffffffffffffffffff82169050919050565b6000819050919050565b82818337600083830152505050565b60005b8381101561289957808201518184015260208101905061287e565b838111156128a8576000848401525b50505050565b600060028204905060018216806128c657607f821691505b602082108114156128da576128d96129e9565b5b50919050565b6128e982612a47565b810181811067ffffffffffffffff8211171561290857612907612a18565b5b80604052505050565b600061291c82612862565b91507fffffffffffffffffffffffffffffffffffffffffffffffffffffffffffffffff82141561294f5761294e61298b565b5b600182019050919050565b600061296582612862565b915061297083612862565b9250826129805761297f6129ba565b5b828206905092915050565b7f4e487b7100000000000000000000000000000000000000000000000000000000600052601160045260246000fd5b7f4e487b7100000000000000000000000000000000000000000000000000000000600052601260045260246000fd5b7f4e487b7100000000000000000000000000000000000000000000000000000000600052602260045260246000fd5b7f4e487b7100000000000000000000000000000000000000000000000000000000600052604160045260246000fd5b6000601f19601f8301169050919050565b7f596f752063616e27742073616c6520746865205374617220796f7520646f6e2760008201527f74206f776e656400000000000000000000000000000000000000000000000000602082015250565b7f4552433732313a207472616e7366657220746f206e6f6e20455243373231526560008201527f63656976657220696d706c656d656e7465720000000000000000000000000000602082015250565b7f4552433732313a20746f6b656e20616c7265616479206d696e74656400000000600082015250565b7f4552433732313a207472616e7366657220746f20746865207a65726f2061646460008201527f7265737300000000000000000000000000000000000000000000000000000000602082015250565b7f4552433732313a20617070726f766520746f2063616c6c657200000000000000600082015250565b7f4552433732313a206f70657261746f7220717565727920666f72206e6f6e657860008201527f697374656e7420746f6b656e0000000000000000000000000000000000000000602082015250565b7f4552433732313a20617070726f76652063616c6c6572206973206e6f74206f7760008201527f6e6572206e6f7220617070726f76656420666f7220616c6c0000000000000000602082015250565b7f4552433732313a2062616c616e636520717565727920666f7220746865207a6560008201527f726f206164647265737300000000000000000000000000000000000000000000602082015250565b7f4552433732313a206f776e657220717565727920666f72206e6f6e657869737460008201527f656e7420746f6b656e0000000000000000000000000000000000000000000000602082015250565b7f4552433732313a206d696e7420746f20746865207a65726f2061646472657373600082015250565b7f4552433732313a20617070726f76656420717565727920666f72206e6f6e657860008201527f697374656e7420746f6b656e0000000000000000000000000000000000000000602082015250565b7f4552433732313a207472616e73666572206f6620746f6b656e2074686174206960008201527f73206e6f74206f776e0000000000000000000000000000000000000000000000602082015250565b7f4552433732314d657461646174613a2055524920717565727920666f72206e6f60008201527f6e6578697374656e7420746f6b656e0000000000000000000000000000000000602082015250565b7f596f75206e65656420746f206861766520656e6f756768204574686572000000600082015250565b7f4552433732313a20617070726f76616c20746f2063757272656e74206f776e6560008201527f7200000000000000000000000000000000000000000000000000000000000000602082015250565b7f54686520537461722073686f756c6420626520757020666f722073616c650000600082015250565b7f4552433732313a207472616e736665722063616c6c6572206973206e6f74206f60008201527f776e6572206e6f7220617070726f766564000000000000000000000000000000602082015250565b612ee2816127f8565b8114612eed57600080fd5b50565b612ef98161280a565b8114612f0457600080fd5b50565b612f1081612816565b8114612f1b57600080fd5b50565b612f2781612862565b8114612f3257600080fd5b5056fea2646970667358221220409e7fdd93c2f1f9b4a5df1a1aa72572503bafb5722943a98fd12362454c9ed864736f6c63430008030033",
  "immutableReferences": {},
  "source": "//\"SPDX-License-Identifier: UNLICENSED\"\npragma solidity ^0.8.3;\n\nimport \"@openzeppelin/contracts/token/ERC721/ERC721.sol\";\n\ncontract StarNotary is ERC721 {\n    struct Star {\n        string name;\n    }\n    \n\n    mapping(uint256 => Star) public tokenIdToStarInfo;\n    mapping(uint256 => uint256) public starsForSale;\n\n    constructor() ERC721(\"StarNotary\", \"STAR\") {}\n\n    // Create Star using the Struct\n    function createStar(string memory _name, uint256 _tokenId) public { // Passing the name and tokenId as a parameters\n        Star memory newStar = Star(_name); // Star is an struct so we are creating a new Star\n        tokenIdToStarInfo[_tokenId] = newStar; // Creating in memory the Star -> tokenId mapping\n        _mint(msg.sender, _tokenId); // _mint assign the the star with _tokenId to the sender address (ownership)\n    }\n\n    // Putting an Star for sale (Adding the star tokenid into the mapping starsForSale, first verify that the sender is the owner)\n    function putStarUpForSale(uint256 _tokenId, uint256 _price) public {\n        require(ownerOf(_tokenId) == msg.sender, \"You can't sale the Star you don't owned\");\n        starsForSale[_tokenId] = _price;\n    }\n\n\n    // Function that allows you to convert an address into a payable address\n    function _make_payable(address x) internal pure returns (address payable) {\n        return payable(x);\n    }\n\n    //Approve transaction\n    function approveTransaction(address _spender, uint256 _tokenId) public returns(bool success){\n        require(_spender != address(0));\n        approve(_spender, _tokenId);\n        emit Approval(msg.sender, _spender, _tokenId);\n        return true;\n    }\n\n    function buyStar(uint256 _tokenId) public  payable {\n        require(starsForSale[_tokenId] > 0, \"The Star should be up for sale\");\n        uint256 starCost = starsForSale[_tokenId];\n        address ownerAddress = ownerOf(_tokenId);\n        require(msg.value > starCost, \"You need to have enough Ether\");\n        //approve(msg.sender, _tokenId);\n        //approveTransaction(msg.sender, _tokenId);\n        transferFrom(ownerAddress, msg.sender, _tokenId); // We can't use _addTokenTo or_removeTokenFrom functions, now we have to use _transferFrom\n        address payable ownerAddressPayable = _make_payable(ownerAddress); // We need to make this conversion to be able to use transfer() function to transfer ethers\n        ownerAddressPayable.transfer(starCost);\n        if(msg.value > starCost) {\n            payable(msg.sender).transfer(msg.value - starCost);\n        }\n    }\n\n}",
  "sourcePath": "C:/Projects/udacity-nd-blockchain/star-notary-nft/src/contracts/StarNotary.sol",
  "compiler": {
    "name": "solc",
    "version": "0.8.3+commit.8d00100c.Emscripten.clang"
  },
  "schemaVersion": "3.4.1",
  "updatedAt": "2021-07-14T02:12:59.067Z",
  "networkType": "ethereum",
  "devdoc": {
    "kind": "dev",
    "methods": {
      "approve(address,uint256)": {
        "details": "See {IERC721-approve}."
      },
      "balanceOf(address)": {
        "details": "See {IERC721-balanceOf}."
      },
      "getApproved(uint256)": {
        "details": "See {IERC721-getApproved}."
      },
      "isApprovedForAll(address,address)": {
        "details": "See {IERC721-isApprovedForAll}."
      },
      "name()": {
        "details": "See {IERC721Metadata-name}."
      },
      "ownerOf(uint256)": {
        "details": "See {IERC721-ownerOf}."
      },
      "safeTransferFrom(address,address,uint256)": {
        "details": "See {IERC721-safeTransferFrom}."
      },
      "safeTransferFrom(address,address,uint256,bytes)": {
        "details": "See {IERC721-safeTransferFrom}."
      },
      "setApprovalForAll(address,bool)": {
        "details": "See {IERC721-setApprovalForAll}."
      },
      "supportsInterface(bytes4)": {
        "details": "See {IERC165-supportsInterface}."
      },
      "symbol()": {
        "details": "See {IERC721Metadata-symbol}."
      },
      "tokenURI(uint256)": {
        "details": "See {IERC721Metadata-tokenURI}."
      },
      "transferFrom(address,address,uint256)": {
        "details": "See {IERC721-transferFrom}."
      }
    },
    "version": 1
  },
  "userdoc": {
    "kind": "user",
    "methods": {},
    "version": 1
  }
}