{
  "contractName": "StarNotary",
  "abi": [
    {
      "inputs": [],
      "stateMutability": "nonpayable",
      "type": "constructor"
    },
    {
      "anonymous": false,
      "inputs": [
        {
          "indexed": false,
          "internalType": "address",
          "name": "owner",
          "type": "address"
        }
      ],
      "name": "starClaimed",
      "type": "event"
    },
    {
      "inputs": [],
      "name": "starName",
      "outputs": [
        {
          "internalType": "string",
          "name": "",
          "type": "string"
        }
      ],
      "stateMutability": "view",
      "type": "function",
      "constant": true
    },
    {
      "inputs": [],
      "name": "starOwner",
      "outputs": [
        {
          "internalType": "address",
          "name": "",
          "type": "address"
        }
      ],
      "stateMutability": "view",
      "type": "function",
      "constant": true
    },
    {
      "inputs": [],
      "name": "claimStar",
      "outputs": [],
      "stateMutability": "nonpayable",
      "type": "function"
    }
  ],
  "bytecode": "0x608060405234801561001057600080fd5b506040518060400160405280600c81526020017f417765736f6d65205374617200000000000000000000000000000000000000008152506000908051906020019061005c929190610062565b50610166565b82805461006e90610105565b90600052602060002090601f01602090048101928261009057600085556100d7565b82601f106100a957805160ff19168380011785556100d7565b828001600101855582156100d7579182015b828111156100d65782518255916020019190600101906100bb565b5b5090506100e491906100e8565b5090565b5b808211156101015760008160009055506001016100e9565b5090565b6000600282049050600182168061011d57607f821691505b6020821081141561013157610130610137565b5b50919050565b7f4e487b7100000000000000000000000000000000000000000000000000000000600052602260045260246000fd5b610368806101756000396000f3fe608060405234801561001057600080fd5b50600436106100415760003560e01c806388d5896c14610046578063a434c27214610064578063c5946ae014610082575b600080fd5b61004e61008c565b60405161005b919061021d565b60405180910390f35b61006c61011a565b6040516100799190610202565b60405180910390f35b61008a610140565b005b60008054610099906102c0565b80601f01602080910402602001604051908101604052809291908181526020018280546100c5906102c0565b80156101125780601f106100e757610100808354040283529160200191610112565b820191906000526020600020905b8154815290600101906020018083116100f557829003601f168201915b505050505081565b600160009054906101000a900473ffffffffffffffffffffffffffffffffffffffff1681565b33600160006101000a81548173ffffffffffffffffffffffffffffffffffffffff021916908373ffffffffffffffffffffffffffffffffffffffff1602179055507feb7b62b344bb3f85b6845f47ddc7878c8fc9946b9c4a4aacbd5274c883e9b66a336040516101b09190610202565b60405180910390a1565b6101c38161025b565b82525050565b60006101d48261023f565b6101de818561024a565b93506101ee81856020860161028d565b6101f781610321565b840191505092915050565b600060208201905061021760008301846101ba565b92915050565b6000602082019050818103600083015261023781846101c9565b905092915050565b600081519050919050565b600082825260208201905092915050565b60006102668261026d565b9050919050565b600073ffffffffffffffffffffffffffffffffffffffff82169050919050565b60005b838110156102ab578082015181840152602081019050610290565b838111156102ba576000848401525b50505050565b600060028204905060018216806102d857607f821691505b602082108114156102ec576102eb6102f2565b5b50919050565b7f4e487b7100000000000000000000000000000000000000000000000000000000600052602260045260246000fd5b6000601f19601f830116905091905056fea26469706673582212203d932a2c34215d549c80435200977999a8aa90179a6d0e0e5c77032c25024aa364736f6c63430008030033",
  "immutableReferences": {},
  "source": "//\"SPDX-License-Identifier: UNLICENSED\"\npragma solidity ^0.8.3;\n\ncontract StarNotary {\n    string public starName;\n    address public starOwner;\n\n    event starClaimed(address owner);\n\n    constructor() {\n        starName = \"Awesome Star\";\n    }\n\n    function claimStar() public {\n        starOwner = msg.sender;\n        emit starClaimed(msg.sender);\n    }\n}",
  "sourcePath": "/mnt/c/Projects/udacity-nd-blockchain/star-notary-react/src/contracts/StarNotary.sol",
  "compiler": {
    "name": "solc",
    "version": "0.8.3+commit.8d00100c.Emscripten.clang"
  },
  "schemaVersion": "3.4.1",
  "updatedAt": "2021-07-08T02:12:47.454Z",
  "networkType": "ethereum",
  "devdoc": {
    "kind": "dev",
    "methods": {},
    "version": 1
  },
  "userdoc": {
    "kind": "user",
    "methods": {},
    "version": 1
  }
}